:100000000C9434000C9449000C9449000C940201A7
:100010000C949D000C94DA000C9449000C94490057
:100020000C9449000C9449000C9449000C9449002C
:100030000C9449000C9449000C9449000C9449001C
:100040000C9449000C9449000C9449000C9449000C
:100050000C9449000C9449000C9449000C944900FC
:100060000C9449000C94490011241FBECFEFD8E036
:10007000DEBFCDBF11E0A0E0B1E0E8E5F2E002C0F4
:1000800005900D92AA35B107D9F70E947B000C9418
:100090002A010C9400008AB18E7F8AB98AB18260ED
:1000A0008AB9E0ECF0E01082808182608083E1EC2C
:1000B000F0E01082808188698083E2ECF0E01082B9
:1000C0008081866080838FEC90E09093C500809360
:1000D000C4000895AC0120E007C09091C00095FFD6
:1000E000FCCF3093C6002F5FFA01E20FF11D308183
:1000F0003111F3CF0895F89414B881E085B91AB896
:1001000080E88BB917B88FE088B9E8E6F0E0808125
:1001100087608083ECE6F0E080818F608083EBE68F
:10012000F0E0808181608083EDE6F0E0808180688E
:1001300080830E944B007894FFCF1F920F920FB6DE
:100140000F9211242F933F934F935F936F937F935D
:100150008F939F93AF93BF93EF93FF93309905C015
:1001600080E091E00E946A0014C0319905C083E1EB
:1001700091E00E946A000DC0329905C083E291E0CF
:100180000E946A0006C0339904C082E391E00E9495
:100190006A00FF91EF91BF91AF919F918F917F91F5
:1001A0006F915F914F913F912F910F900FBE0F90E4
:1001B0001F9018951F920F920FB60F9211242F9334
:1001C0003F934F935F936F937F938F939F93AF93DF
:1001D000BF93EF93FF934F9904C083E491E00E9493
:1001E0006A00FF91EF91BF91AF919F918F917F91A5
:1001F0006F915F914F913F912F910F900FBE0F9094
:100200001F9018951F920F920FB60F9211242F93E3
:100210003F934F935F936F937F938F939F93AF938E
:10022000BF93EF93FF93189904C08EE491E00E946E
:100230006A00FF91EF91BF91AF919F918F917F9154
:100240006F915F914F913F912F910F900FBE0F9043
:080250001F901895F894FFCFF0
:10025800436F6E74726F6C20497A71756965726448
:10026800610A00436F6E74726F6C2041727269622A
:10027800610A00436F6E74726F6C204162616A6F2D
:100288000A00436F6E74726F6C2044657265636810
:10029800610A00436F6E74726F6C20410A00436FED
:0A02A8006E74726F6C20420A0000B1
:00000001FF
